:020000040800F2
:10000000000002205D850008FD290008FF29000886
:10001000012A0008032A0008052A00080000000041
:10002000000000000000000000000000072A000897
:10003000092A0008000000000B2A00080D2A000809
:10004000AD850008AD850008AD850008AD850008C8
:10005000AD850008AD850008AD850008AD850008B8
:10006000AD850008AD850008AD850008152A00089B
:10007000AD850008AD850008252A0008352A00084E
:10008000AD850008AD850008AD850008AD85000888
:10009000AD850008AD850008AD850008AD85000878
:1000A000AD850008AD850008AD850008AD85000868
:1000B000AD850008AD850008452A0008AD8500081B
:1000C000AD850008AD850008AD850008AD85000848
:1000D000552A0008652A0008AD850008AD8500088E
:1000E000752A0008AD850008AD850008AD850008BB
:1000F000892A0008AD850008AD850008992A000806
:10010000AD850008AD850008AD850008AD85000807
:10011000AD850008A92A0008B92A0008AD850008A5
:10012000AD850008AD850008C92A0008AD85000826
:10013000D92A00080000000000000000AD8500087A
:10014000AD850008AD850008AD850008AD850008C7
:10015000AD850008AD850008E92A0008AD850008D6
:10016000AD850008AD850008AD850008AD850008A7
:10017000AD850008AD85000800000000000000000B
:08018000AD850008AD85000803
:1001900001F0FF01102A2BDB10F0070F08D010F838
:1001A000013B013A8B422DD010F0070F42B3F6D13C
:1001B000F0B441EA012141EA014122F007047FF055
:1001C00000070023F0E80256083C85EA010586EAAC
:1001D000010685FA47F5A3FA87F586FA47F6A5FAE8
:1001E00087F68EB9EED1F0BC01F0FF0102F00702F4
:1001F00032B110F8013B013A83EA010313B1F8D19F
:100200000020704701387047002D06BF354603387F
:10021000073815F0010F07D1013015F4807F02BFB8
:10022000013015F4C03F0130F0BC0138704700BF09
:10023000034613F8012B002AFBD1181A0138704726
:1002400081F0004102E000BF83F0004330B54FEA87
:1002500041044FEA430594EA050F08BF90EA020FF4
:100260001FBF54EA000C55EA020C7FEA645C7FEA87
:10027000655C00F0E2804FEA5454D4EB5555B8BFAA
:100280006D420CDD2C4480EA020281EA030382EA1B
:10029000000083EA010180EA020281EA0303362DAD
:1002A00088BF30BD11F0004F4FEA01314FF4801C80
:1002B0004CEA113102D0404261EB410113F0004F92
:1002C0004FEA03334CEA133302D0524263EB430349
:1002D00094EA050F00F0A780A4F10104D5F1200EE7
:1002E0000DDB02FA0EFC22FA05F2801841F1000142
:1002F00003FA0EF2801843FA05F359410EE0A5F116
:1003000020050EF1200E012A03FA0EFC28BF4CF046
:10031000020C43FA05F3C01851EBE37101F00045FC
:1003200007D54FF0000EDCF1000C7EEB00006EEB09
:100330000101B1F5801F1BD3B1F5001F0CD3490893
:100340005FEA30004FEA3C0C04F101044FEA4452EA
:1003500012F5800F80F09A80BCF1004F08BF5FEA71
:10036000500C50F1000041EB045141EA050130BD51
:100370005FEA4C0C404141EB0101013C28BFB1F563
:10038000801FE9D291F0000F04BF01460020B1FAAE
:1003900081F308BF2033A3F10B03B3F120020CDA81
:1003A0000C3208DD02F1140CC2F10C0201FA0CF05F
:1003B00021FA02F10CE002F11402D8BFC2F1200CC4
:1003C00001FA02F120FA0CFCDCBF41EA0C0190407A
:1003D000E41AA2BF01EB0451294330BD6FEA0404C3
:1003E0001F3C1CDA0C340EDC04F11404C4F12002AE
:1003F00020FA04F001FA02F340EA030021FA04F3C0
:1004000045EA030130BDC4F10C04C4F1200220FA16
:1004100002F001FA04F340EA0300294630BD21FA54
:1004200004F0294630BD94F0000F83F4801306BF1A
:1004300081F480110134013D4EE77FEA645C18BF0E
:100440007FEA655C29D094EA050F08BF90EA020FA5
:1004500005D054EA000C04BF1946104630BD91EA9D
:10046000030F1EBF0021002030BD5FEA545C05D1A0
:100470004000494128BF41F0004130BD14F58004DF
:100480003CBF01F5801130BD01F0004545F0FE4153
:1004900041F470014FF0000030BD7FEA645C1ABF88
:1004A000194610467FEA655C1CBF0B46024650EABF
:1004B000013406BF52EA033591EA030F41F40021EB
:1004C00030BD00BF90F0000F04BF0021704730B571
:1004D0004FF4806404F132044FF000054FF0000146
:1004E00050E700BF90F0000F04BF0021704730B507
:1004F0004FF4806404F1320410F0004548BF4042DC
:100500004FF000013EE700BF42004FEAE2014FEA30
:1005100031014FEA02701FBF12F07F4393F07F4F0B
:1005200081F06051704732F07F4208BF704793F00E
:100530007F4F04BF41F40021704730B54FF4607421
:1005400001F0004521F000411CE700BF50EA010224
:1005500008BF704730B54FF000050AE050EA0102CD
:1005600008BF704730B511F0004502D5404261EB3D
:1005700041014FF4806404F132045FEA915C3FF47E
:10058000D8AE4FF003025FEADC0C18BF03325FEA1B
:10059000DC0C18BF033202EBDC02C2F1200300FACC
:1005A00003FC20FA02F001FA03FE40EA0E0021FAF1
:1005B00002F11444BDE600BF70B54FF0FF0C4CF4DF
:1005C000E06C1CEA11541DBF1CEA135594EA0C0F91
:1005D00095EA0C0F00F0DEF82C4481EA030621EACC
:1005E0004C5123EA4C5350EA013518BF52EA033507
:1005F00041F4801143F4801338D0A0FB02CE4FF0B9
:100600000005E1FB02E506F00042E0FB03E54FF0E8
:100610000006E1FB03569CF0000F18BF4EF0010EE0
:10062000A4F1FF04B6F5007F64F5407404D25FEADC
:100630004E0E6D4146EB060642EAC62141EA55518F
:100640004FEAC52040EA5E504FEACE2EB4F1FD0CD1
:1006500088BFBCF5E06F1ED8BEF1004F08BF5FEA4F
:10066000500E50F1000041EB045170BD06F0004601
:1006700046EA010140EA020081EA0301B4EB5C04AE
:10068000C2BFD4EB0C0541EA045170BD41F48011A6
:100690004FF0000E013C00F3AB8014F1360FDEBFCB
:1006A000002001F0004170BDC4F10004203C35DAA7
:1006B0000C341BDC04F11404C4F1200500FA05F32A
:1006C00020FA04F001FA05F240EA020001F00042CB
:1006D00021F0004110EBD37021FA04F642EB060141
:1006E0005EEA430E08BF20EAD37070BDC4F10C046B
:1006F000C4F1200500FA04F320FA05F001FA04F22F
:1007000040EA020001F0004110EBD37041F100011A
:100710005EEA430E08BF20EAD37070BDC4F1200525
:1007200000FA05F24EEA020E20FA04F301FA05F28D
:1007300043EA020321FA04F001F0004121FA04F235
:1007400020EA020000EBD3705EEA430E08BF20EA05
:10075000D37070BD94F0000F0FD101F0004640003F
:1007600041EB010111F4801F08BF013CF7D041EAC1
:10077000060195F0000F18BF704703F000465200C5
:1007800043EB030313F4801F08BF013DF7D043EA96
:100790000603704794EA0C0F0CEA135518BF95EA4C
:1007A0000C0F0CD050EA410618BF52EA4306D1D1D3
:1007B00081EA030101F000414FF0000070BD50EAF2
:1007C000410606BF1046194652EA430619D094EA7C
:1007D0000C0F02D150EA013613D195EA0C0F05D166
:1007E00052EA03361CBF104619460AD181EA0301BA
:1007F00001F0004141F0FE4141F470014FF0000072
:1008000070BD41F0FE4141F4780170BD70B54FF00C
:10081000FF0C4CF4E06C1CEA11541DBF1CEA13558C
:1008200094EA0C0F95EA0C0F00F0A7F8A4EB05046E
:1008300081EA030E52EA03354FEA013100F0888065
:100840004FEA03334FF0805545EA131343EA12632E
:100850004FEA022245EA111545EA10654FEA0026E3
:100860000EF000419D4208BF964244F1FD0404F59C
:10087000407402D25B084FEA3202B61A65EB0305F8
:100880005B084FEA32024FF480104FF4002CB6EBB5
:10089000020E75EB030E22BFB61A754640EA0C0035
:1008A0005B084FEA3202B6EB020E75EB030E22BF75
:1008B000B61A754640EA5C005B084FEA3202B6EBB6
:1008C000020E75EB030E22BFB61A754640EA9C0075
:1008D0005B084FEA3202B6EB020E75EB030E22BF45
:1008E000B61A754640EADC0055EA060E18D04FEA03
:1008F000051545EA16754FEA06164FEAC30343EAA3
:1009000052734FEAC2025FEA1C1CC0D111F4801F6F
:100910000BD141EA00014FF000004FF0004CB6E768
:1009200011F4801F04BF01430020B4F1FD0C88BF07
:10093000BCF5E06F3FF6AFAEB5EB030C04BFB6EB12
:10094000020C5FEA500C50F1000041EB045170BD05
:100950000EF0004E4EEA113114EB5C04C2BFD4EB32
:100960000C0541EA045170BD41F480114FF0000EB6
:10097000013C90E645EA060E8DE60CEA135594EA32
:100980000C0F08BF95EA0C0F3FF43BAF94EA0C0F35
:100990000AD150EA01347FF434AF95EA0C0F7FF4AA
:1009A00025AF104619462CE795EA0C0F06D152EAFE
:1009B00003353FF4FDAE1046194622E750EA4106E2
:1009C00018BF52EA43067FF4C5AE50EA41047FF4F3
:1009D0000DAF52EA43057FF4EBAE12E74FF0FF3C58
:1009E00006E000BF4FF0010C02E000BF4FF0010C29
:1009F0004DF804CD4FEA410C7FEA6C5C4FEA430CA2
:100A000018BF7FEA6C5C1BD001B050EA410C0CBFF0
:100A100052EA430C91EA030F02BF90EA020F002052
:100A2000704710F1000F91EA030F58BF994208BFB9
:100A300090422CBFD8176FEAE37040F00100704776
:100A40004FEA410C7FEA6C5C02D150EA013C07D1CD
:100A50004FEA430C7FEA6C5CD6D152EA033CD3D018
:100A60005DF8040B704700BF8446104662468C4612
:100A70001946634600E000BF01B5FFF7B7FF002845
:100A800048BF10F1000F01BD4DF808EDFFF7F4FF6E
:100A90000CBF012000205DF808FB00BF4DF808EDF9
:100AA000FFF7EAFF34BF012000205DF808FB00BF1C
:100AB0004DF808EDFFF7E0FF94BF012000205DF83E
:100AC00008FB00BF4DF808EDFFF7CEFF94BF0120F3
:100AD00000205DF808FB00BF4DF808EDFFF7C4FFEC
:100AE00034BF012000205DF808FB00BF4FEA410C35
:100AF0007FEA6C5C02D150EA013C0AD14FEA430C18
:100B00007FEA6C5C02D152EA033C02D14FF0000054
:100B100070474FF0010070474FEA410212F5001292
:100B200015D211D56FF47873B3EB625212D94FEA34
:100B3000C12343F0004343EA505311F0004F23FA1E
:100B400002F018BF404270474FF00000704750EA73
:100B5000013005D111F0004008BF6FF00040704730
:100B60004FF00000704700BF53B94AB9002908BFD1
:100B700000281CBF4FF0FF314FF0FF3000F00CB8E1
:100B8000ADF1080C6DE904CE0BF02CFEDDF804E0AD
:100B9000DDE9022304B07047704700BF0348044BEF
:100BA000834202D0034B03B1184770477402002000
:100BB00074020020000000000548064B1B1AD90FE4
:100BC00001EBA301491002D0034B03B11847704752
:100BD00074020020740200200000000010B5064CD2
:100BE000237843B9FFF7DAFF044B13B10448AFF39E
:100BF00000800123237010BD74020020000000005B
:100C0000DCCA000808B5054B1BB105490548AFF320
:100C10000080BDE80840FFF7CFBF00BF0000000024
:100C200078020020DCCA000803E0DFED0C7A30EE29
:100C3000670ADFED0B7AB4EEE70AF1EE10FAF4DAA8
:100C400003E0DFED067A30EE270ADFED067AB4EE38
:100C5000E70AF1EE10FAF4D4704700BF0000B44385
:100C600000003443000034C30F4B1B680F4A126866
:100C70009A4209D00E4A11680E4A11600B4A13605D
:100C80000C4B93ED000A70470B4BD3ED007A9FEDB0
:100C90000B7A67EE877A074B93ED007A77EE877AC7
:100CA000C3ED007AECE700BF3C0300200000002009
:100CB00048030020900200204403002017B7513859
:100CC00010B41A4C24786CB390ED007A184CD4ED23
:100CD000006A67EE265A91ED006A164CD4ED007A50
:100CE00026EE275A75EE855A27EEC77A26EE866AD3
:100CF00037EE067AD2ED004A26EEA46A93ED005A4A
:100D000027EE854A36EE046A67EEE47A66EE856A77
:100D100077EEA67AC0ED005A81ED007A82ED006A86
:100D2000C3ED007A5DF8044B704700BFB8020020A5
:100D300008000020BC0200203E4B1B7833B93E4B1C
:100D40001A683E4B1A603B4B01221A703C4BD3EDA4
:100D5000007AF1EE677A3B4B1B68834248D3394BEC
:100D600018609FED397A354BD3ED006ADFED375AC5
:100D700087EE256AF7EE005AB4EEE56AF1EE10FA56
:100D800001DDB0EE656A77EEE67A67EE867A77EE99
:100D9000A67A2A4BC3ED007A77EEE67A9FED2C6AAD
:100DA00027EE067AF4EEC77AF1EE10FA35DD76EE2C
:100DB000876AC3ED006A214B93ED007ADFED257A57
:100DC000B4EEE77AF1EE10FA01DDC3ED007A1B4BC9
:100DD00093ED007ADFED207AB4EEE77AF1EE10FAC7
:100DE00001D5C3ED007A154B1A681C4B1A60704789
:100DF000C31A07EE103AB8EE477ADFED136A27EE12
:100E0000267A104B1860F6EE006AB4EEE67AF1EE40
:100E100010FAA8DD9FED0C7AA5E7B1EE476AB4EEB3
:100E2000E76AF1EE10FAC6DD76EEC76A034BC3ED52
:100E3000006AC0E7A4020020340300209C020020C6
:100E40001C030020A00200206F12833ACDCCCC3DC1
:100E5000000048420000F0420000F0C2FC02002006
:100E6000794BD3ED006A794BD3ED007A76EEE76AE1
:100E7000F3EE027AF4EEE76AF1EE10FA09DCFBEE2B
:100E8000027AF4EEE76AF1EE10FA04D5FBEE026A9C
:100E900001E0F3EE026A6E4B1B680BB96C4B1860F5
:100EA0006B4A1368C31A07EE903AF8EE677A27EE9A
:100EB000800A1060DFED677AB4EEE70AF1EE10FA0F
:100EC00009DCDFED657AB4EEE70AF1EE10FA04D53D
:100ED0009FED620A01E09FED620A66EE807A614B47
:100EE00093ED007A77EE877AC3ED007AB3EE097A54
:100EF000F4EEC77AF1EE10FA32DD83ED007A5A4B48
:100F000093ED006AF1EE087A26EE276ADFED575A74
:100F100066EEA55A534BD3ED007A77EEA77A75EEBD
:100F2000A77A534B93ED007AB2EE005A27EE057A7A
:100F300077EEC77A77EE867A9FED4E7AF4EEC77A2F
:100F4000F1EE10FA17DC9FED4C7AF4EEC77AF1EE71
:100F500010FA63D4F4EE677AF1EE10FA21D00CE0C7
:100F6000BBEE097AF4EEC77AF1EE10FAC7D53D4B25
:100F700083ED007AC3E7DFED3F7A37EEE57A3C4B4D
:100F800093ED005AF2EE004A25EE245A37EE057A28
:100F900037EE467AB6EE005A27EE057A314B83EDEE
:100FA000007A364BC3ED006A354BC3ED005A2D4B2A
:100FB00093ED007A37EE077A324B83ED007A2C4BB3
:100FC00093ED007AFAEE006A27EE267A2E4B83ED37
:100FD000007A2E4B83ED006AF0EEE76A2C4B93ED1E
:100FE000007AB0EEC77AF4EEC76AF1EE10FA18D8BC
:100FF0009FED287A20EE070A254B93ED007A37EE15
:10100000007AB4EEE77AF1EE10FA0DD5D3ED007A5E
:1010100077EE807A1E4BC3ED007A7047DFED167ACB
:10102000ABE79FED1D7AE5E7194B93ED007A37EEBC
:10103000407AB4EEE77AF1EE10FAEBDDD3ED007A08
:1010400077EEC07AE6E700BFF40200202803002014
:10105000B40200200AD7233CACC527376F1283396E
:101060006F12833AB0020020A80200200000204244
:10107000F002002000001644000016C4E402002024
:10108000E0020020DC020020D8020020D402002070
:101090000003002000401C4700401C4610B1044AD9
:1010A0001268026011B1034B1B680B60704700BFF0
:1010B0004C0300204403002070B505460C46C6785A
:1010C000202E28BF202620220021204608F018F8D4
:1010D000324605F10C01204608F091F870BD000081
:1010E000002862D000B589B0437A817A43EA0123AF
:1010F000C17A43EA01434C2B32D9B3F58E7F33D109
:101100006946FFF7D9FF9DF81E30012B2CD89DF8BA
:101110001F300BB19A2B27D1DDED007AF4EE677A00
:10112000F1EE10FA32D6DDED027AF4EE677AF1EEE6
:1011300010FA2BD61D4B1B78CBB9DDED000A9DEDC7
:10114000020A0AF0E5F830EE000ADFED197A20EE27
:10115000270A184B83ED000A174B00221A6003E0A0
:101160004B2B01D303F085FE09B05DF804FB00238F
:101170000E4A1370114A1370114B1B680D4A13600D
:10118000104A1360082003F0BDFED6E7DDED057AB6
:10119000F4EE677AF1EE10FAE6D69FED057A67EE87
:1011A000877A054BC3ED007ADEE770470C0000201C
:1011B000E12E6542FC020020F802002024030020FA
:1011C00050030020F402002038B50D4B1B680024AA
:1011D0005C639C63DC6322464FF40041094805F0E0
:1011E0000AFA094D22464FF48061284605F003FAB9
:1011F00022464FF40061284605F0FDF938BD00BFD6
:1012000034230020000002400008024010B5104CBA
:1012100001224FF40061204605F0EDF901224FF460
:101220008051204605F0E7F9012005F027FD094C23
:101230000021204606F05EFC0421204606F05AFC00
:101240000821204606F056FCFFF7BEFF10BD00BF88
:10125000000002403423002038B52DED028B00251C
:101260002C469FED268AF0EE488A01E00134E4B274
:101270000F2C11D8224801F0D5FE0028F6DB204DB6
:10128000284601F0C9FF78EEC08A284601F0D8FF51
:1012900038EE408A0125E9E715B9BDEC028B38BD6F
:1012A000F0EE480AB0EE680A0AF032F8DFED157A7F
:1012B00020EE270AF1EE407A134BC3ED007AB0EE30
:1012C000C00A9FED127AB4EEC70AF1EE10FAE4DB21
:1012D0009FED0F7A27EE878AB0EE480A0AF060F891
:1012E0000C4B83ED000AB0EE480A0AF099F80A4B5D
:1012F00083ED000A094B01221A70CEE700000000BE
:1013000054050020E12E6542C00200200000344256
:1013100035FA8E3C08000020BC020020B8020020F4
:101320002DE9F04D2DED048B84B00446F0EE409A8B
:101330000D4690461E469DF844B0129F9DF850A061
:1013400001F070FE0028C0F2EF80BBF1000F7BD0EF
:10135000FFEE008A204601F05FFF60EE287ACDEDB7
:10136000037A204601F062FFB0EE409A204601F079
:1013700067FF60EE287ACDED027A204601F06AFF21
:1013800060EE287ACDED017A204601F06DFFB0EED7
:10139000408A204601F072FF60EE287ACDED007A97
:1013A0006B4601AA02A903A8FFF78AFCBAF1000F55
:1013B0004DD1DDED020A9DED030A09F0A9FFDFED35
:1013C0005D7A27EEC00A109B0BB183ED008A33785B
:1013D000002B6BD1FFF728FC85ED000A0023C8F82D
:1013E000003001233370002F00F0A080139B002BEE
:1013F00000F09E80DFED507A9DED010A20EE270A75
:1014000068EE270A9DED001A21EE271A3B7D002B7E
:1014100072D04A4B1B78002B7AD0B0EE693ADDEDE2
:10142000022AB0EE492ADDED031A384602F093F89D
:10143000384602F0EBF9139B83ED000A012004B05B
:10144000BDEC048BBDE8F08DF7EE008A82E79DEDE0
:10145000030A20EE000A69EE097A70EE277A9DED04
:10146000020A20EE000A37EE800A09F077FFF7EE55
:10147000007A30EE670AB0EEC00A304B1B7853B1E9
:10148000DFED2F7AB4EEE70AF1EE10FA91DD2B4B87
:1014900000221A708DE7DFED2B7AB4EEE70AF1EE49
:1014A00010FA86D5254B01221A7082E7D5ED008A05
:1014B00068EE297A78EEA78A30EE680AFFF7B4FB67
:1014C0001E4B1B786BB1B7EE087AC9EE877AB7EE80
:1014D000007AF4EEC77AF1EE10FA04DDF7EE007A46
:1014E00001E0DFED197A27EE800A30EE280AFFF7D7
:1014F0009BFB85ED000A76E79DED021AF0EE490AA6
:101500009DED030A384602F001F8104B3B618FE76E
:10151000DFED0D1AB0EE693AF0EE612AB0EE612A05
:10152000384602F018F883E7002088E7012086E7B4
:10153000012084E7E12E654235FA8E3C0D00002043
:10154000CDCC4C3ECDCCCC3D000000008FC2F53C54
:1015500070B52DED028B88B0B0EE408A0023079362
:1015600006936C4E012504956B4B03936B4B0293D2
:10157000019507AB00936A4B6A4A6B493046FFF707
:10158000CFFE0446694B93ED007ADDED077A77EEE6
:10159000C77A9FED677A67EE877A93ED007A77EEE8
:1015A000877AC3ED007A0023049303930293019595
:1015B00006AB00935F4B604A6049B0EE480AA6F65E
:1015C000EC50FFF7ADFE002C00F09C80002800F0EE
:1015D0009980534B1B78002B00F09480554B1B785F
:1015E000002B00F08F80554B93ED008AB1EE488AB6
:1015F000534B1B78002B4BD14B4B1B68514A13604C
:10160000514A13604E4B1D70504B1B78002B53D129
:10161000414BD3ED008A4E4B1B78002B50D14D4BE4
:10162000C3ED008A4C4BC3ED008A494B01221A706E
:101630004A4B1B78002B54D1494B83ED008A494B10
:1016400083ED008A454B01221A703E4B93ED008AD0
:10165000434BD3ED007A38EE278AB0EE480AFFF705
:10166000E3FA414B83ED000A404B83ED008ADDED48
:10167000077A9DED067A77EEC77A3D4BC3ED007A87
:101680003C4B01221A703C4A1368013313603CE062
:10169000254BD3ED008A2C4C94ED000A38EEC00A9D
:1016A000FFF7C2FA274BD3ED007A77EE807AC3EDCD
:1016B000007AC4ED008AA7E71B4BD3ED008AAAE7A6
:1016C000254C94ED000A38EEC00AFFF7ADFA214B25
:1016D000D3ED007A77EE807AC3ED007AC4ED008A0C
:1016E000A6E7204C94ED000A38EE400AFFF79CFA7A
:1016F0001B4BD3ED007A77EE807AC3ED007A84ED50
:10170000008AA2E71B4B00221A7008B0BDEC028BC6
:1017100070BD00BF40130020500300205403002080
:10172000780300207C03002080030020F0020020CA
:10173000CDCCCC3D6C03002070030020740300204E
:101740003003002034030020380300200C00002068
:1017500024030020280300202C030020180300206D
:101760001C030020200300204C030020480300201D
:1017700044030020400300203C03002070B52DED01
:10178000088BB0EE409AF0EE608AF0EE419A464D3A
:101790002B68DC6AF0EE410AB0EE680A09F080FEC0
:1017A000F0EE490A09F07CFEB0EE408AF0EE690ADC
:1017B000B0EE680A09F09CFEF0EE490A09F098FEC6
:1017C00038EE008AFEEE007A28EE278A39EE089A73
:1017D000DFED36BA89EE2B0A9FED35BAF6EE00AA98
:1017E000F0EE4B0A30EE2A0A09F05AFE9FED31AABC
:1017F000F0EE4A0A09F07CFEB0EE409A78EE888A54
:1018000088EEAB0AF0EE4B0A30EE2A0A09F048FEE9
:10181000F0EE4A0A09F06CFEF0EE408A39EE881AC2
:1018200081EE2B0AF0EE4B0A30EE2A0A09F038FE60
:10183000F0EE4A0A09F05CFEB0EE408A1E4B83EDE2
:10184000009A1E4BC3ED008A1D4B83ED000A012256
:101850004FF400411B4804F0CEFE1B4E01224FF412
:101860008061304604F0C7FE01224FF4006130462B
:1018700004F0C1FE07EE904AF8EE677A27EE897A07
:101880002B68BCEEC77A83ED0D7A67EEA88AFCEE72
:10189000E88AC3ED0E8A67EE887AFCEEE77AC3ED3C
:1018A0000F7ABDEC088B70BD342300203D0A074140
:1018B0000AD7A33C48E17A3FCC020020C8020020AE
:1018C000C4020020000002400008024000B52DEDD7
:1018D000048B83B0002001F051F94C4B1B78002B96
:1018E00064D0694601A801F0A7FD9DED019ADDEDE8
:1018F000007A474B83ED009A464BC3ED007A77EEB2
:10190000A77A77EE898ADFED447A68EEA78AFFF737
:10191000ABF9424BD3ED007A37EE800ADFED400A97
:10192000F1EE007A20EE270A09F0F4FCB5EEC00AC9
:10193000F1EE10FA46D43B4B83ED000ADFED3A7A24
:1019400020EE278AB0EE480A09F02AFDF0EE409A10
:10195000B0EE480A09F064FD29EE297A68EE807A33
:1019600037EE277A69EE407A68EEA98A77EEA87A90
:101970002E4B83ED007A2E4BC3ED007A2D4BD3ED29
:10198000000ADFED2D7A60EEA70AF1EE027AF4EE9E
:10199000E70AF1EE10FA1ADCF9EE027AF4EEE70A41
:1019A000F1EE10FA15D5F9EE020A12E000231F4AF3
:1019B00013601F4A1360214A1360214A1360FFF726
:1019C00003FC1EE0DFED167A30EE270AB3E7F1EEF6
:1019D000020A1A4B00221A60194BC3ED000A20EECE
:1019E000C00A60EEA90AFEEE007A60EE277A9FED4B
:1019F000157A60EE870A37EEE01A77EEA00AFFF755
:101A0000BDFE03B0BDEC048B5DF804FB4003002079
:101A100014030020100300203ACD133F04000020DF
:101A20000000B443D002002035FA8E3C0C030020A5
:101A3000080300200003002075029A3BEC020020FE
:101A4000E8020020D7B35D3F08B50268064B9A4212
:101A500000D008BD022001F091F8044B1B78002B48
:101A6000F7D0FFF733FFF4E7002001400403002024
:101A700008B50368064A934203D0064A934203D04E
:101A800008BD03F045FAFBE703F00AFCF8E700BFE6
:101A9000005000400010014000B587B003681C4AA8
:101AA000934205D01B4A93421AD007B05DF804FB5D
:101AB00000220092184B1B68196800915968009128
:101AC0000099019219680191596801910199029256
:101AD0001A6802925B680293029B03F04DFAE4E7F6
:101AE000002203920D4B1B681968039159680391FA
:101AF0000399049219680491596804910499059214
:101B00001A6805925B680593059B03F035FCCCE7EA
:101B10000050004000100140D42500208C250020FA
:101B200008B50F220C49002003F00CFD00230BE048
:101B30000A4A03F120004FF0FF3142F8201003F170
:101B4000600042F820100133072BF1D9034B20220B
:101B50005A6003F01BFCFCE7F8CA000800E100E053
:101B600010B594B008AC30220021204607F0C8FA26
:101B700000230393049305930693079301932A4A42
:101B8000116C41F080511164126C02F0805201928C
:101B9000019A0293254B1A6842F480421A601B682E
:101BA00003F480430293029B092308934FF480338C
:101BB000099301230D9302230E934FF480020F9299
:101BC000102210924FF4A8721192129304231393CF
:101BD000204604F03BF878B10A23089300230993C8
:101BE00001220B9210210C910D9202220E920F9362
:101BF000204604F02BF890B90F230393022304939B
:101C0000002305934FF4A05306934FF4805307939A
:101C1000052103A804F07EFA18B914B010BDFFF72F
:101C20007FFFFFF77DFF00BF0038024000700040DB
:101C300070B52DED068B04F0F5FFFFF791FF00F076
:101C4000A7F900F0BEFF00F071FB00F0B1FD00F05D
:101C500095FD03F013FB03F0A1F9B14803F098F9E7
:101C6000B04803F049F9002003F04CF900F02AFADB
:101C700000F06EFA00F0AEFBAB4C0423AB4AAC496B
:101C8000204601F054F8204601F08CFA002848DB89
:101C9000A84C4FF40063A54AA549204601F047F837
:101CA000204601F07FFA00283DDB00F0CFFCFFF773
:101CB000ADFA01F0EDFA04F0DBFF9F4C206004F078
:101CC000D7FF606009229D49002003F03BFC9C4A3D
:101CD000D2F8FC3043F08073C2F8FC30994B0022FC
:101CE0005A601A6842F001021A605968964A1160F7
:101CF0005A68964B1A60964B1B68964EB3FBF6F6E5
:101D0000FA2202FB06F607EE903AF8EE677AB7EE93
:101D1000007AC7EE279AFFF79FFA8F4B01221A70BD
:101D20009DE0FFF7FDFEFFF7FBFE07EE903AB8EEF1
:101D3000670A854B1C6020EE290AFFF709FC9BE02F
:101D40002846FEF7F9FF9CE09FED848A844B93EDD3
:101D5000009A844BD3ED007A39EE679A89EE08AA8F
:101D6000F3EE0E7AB4EEE7AAF1EE10FA09DCFBEE20
:101D70000E7AB4EEE7AAF1EE10FA04D5BBEE0EAA85
:101D800001E0B3EE0EAA784B93ED000AF0EEC08AA4
:101D9000B0EEC90ADFED757A20EE270A09F0DEFA07
:101DA00038EE800AF3EE0E7AB4EEE70AF1EE10FA9E
:101DB00001DDB0EE670AB4EEC0AAF1EE10FA08DC5D
:101DC000B1EE400AB4EECA0AF1EE10FA01DCB0EE50
:101DD0004A0A9FED677A28EE077A664BD3ED007AC0
:101DE00030EE670AB4EEC07AF1EE10FA08D4B1EE24
:101DF000477AB4EEC07AF1EE10FA01DCB0EE407A28
:101E000077EE877A5B4BC3ED007A67EE887AB5EEA2
:101E1000C09AF1EE10FA04DDB4EEE79AF1EE10FA92
:101E200076D4B5EEC09AF1EE10FA69D44D4B93ED2D
:101E3000007A37EE877A83ED007A87EE887A4E4B08
:101E400083ED007AB0EE690A2046FFF709F82846CC
:101E500003F0FEF8384B5B68EB1A632B5BD803F09A
:101E600095FA04F005FF0546364B5C68364B1B6857
:101E7000E31A9E427FF659AF404B1B78012B3FF48B
:101E80005FAF324A1368E31A1460374AD2ED007A22
:101E9000F5EE407AF1EE10FA10D007EE903AF8EE37
:101EA000677A67EEA97A92ED007A67EE877A2C4B13
:101EB00093ED007A77EE277AC3ED007A304B1B68FA
:101EC0000BB92F4B1C602E4A1368E31A08EE103A28
:101ED000B8EE488A28EE298A1460DFED2A7AB4EE3B
:101EE000E78AF1EE10FA3FF72FAFDFED277AB4EE75
:101EF000E78AF1EE10FA7FF529AF9FED248A25E7F6
:101F0000B4EEE79AF1EE10FA90DDF0EE497A8DE743
:101F1000F0EE497A8AE7084B5D6001F02DFA9EE702
:101F2000E11000089D10000840130020000402404A
:101F3000DC220020540500208803002008CB000884
:101F400000ED00E0001000E084030020AC0200205F
:101F5000A800002040420F00040300206F12833AC3
:101F6000FC020020F4020020F80200200000704370
:101F70000000F04294020020A80200200C00002083
:101F8000980200200AD7233CACC527376F1283394B
:101F90002DE9F0438BB005AD002405940694079419
:101FA000089409940094434B1A6B42F080021A6320
:101FB0001A6B02F080020092009A01941A6B42F0B0
:101FC00001021A631A6B02F001020192019A029453
:101FD0001A6B42F002021A631A6B02F002020292BA
:101FE000029A03941A6B42F004021A631A6B02F00D
:101FF00004020392039A04941A6B42F008021A63D3
:102000001B6B03F008030493049B2B4F224649F6F5
:102010000701384604F0EFFADFF8A080012240F60D
:102020000401404604F0E7FADFF8949022464FF4AA
:102030004061484604F0DFFA07230593012606961F
:10204000079608942946384604F0D8F940F6040368
:1020500005930696079408942946404604F0CEF965
:102060004FF4A05305934FF4881306930794294621
:10207000404604F0C3F94FF41843059306960794BD
:1020800008942946384604F0B9F94FF440630593A3
:102090000696079408942946484604F0AFF922466C
:1020A0000621282004F070FD282004F07DFD0BB0EF
:1020B000BDE8F08300380240000002400004024006
:1020C0000008024000B585B00023009301930293FD
:1020D00003931D481D4A02604FF4803242608360C2
:1020E00001220261037680F820304FF08051C162F6
:1020F0004FF060618162C3600223C36180F83020C9
:10210000426103F0D9FAB0B9062300930123019389
:102110000223029369460C4803F0CEFC70B90723F2
:102120000093022301936946074803F0C5FC40B9B8
:1021300005B05DF804FBFFF7F3FCE5E7FFF7F0FC03
:10214000EDE7FFF7EDFCF3E7D4210020002001408C
:1021500000B585B0002300930193029303931548C3
:10216000154A02604FF48032426083600361037657
:1021700080F82030C362114A8262C3600122C261CA
:1021800080F83030426103F097FA68B90323009376
:1021900001230193062302936946064803F08CFC51
:1021A00028B905B05DF804FBFFF7BAFCEEE7FFF7CE
:1021B000B7FCF6E78C210020002201400100000F4F
:1021C000F0B58BB00023059306930793089309930A
:1021D0000368334A934204D0324A934253D00BB03F
:1021E000F0BD0446002501952F4B5A6C42F48072D5
:1021F0005A645A6C02F480720192019A02951A6B29
:1022000042F001021A631A6B02F001020292029A72
:1022100003951A6B42F004021A631B6B03F004036C
:102220000393039BE82305930327069705AE3146E6
:102230001E4804F0E3F808230593069707953146F6
:102240001B4804F0DBF81B481B4B036045608560AE
:10225000C5604FF4806303614FF4006343614FF442
:10226000005383614FF48073C3614FF40033036202
:10227000456204F051FA18B90E4BA3639C63AEE7B4
:10228000FFF74EFCF8E700230493074B5A6C42F427
:1022900080625A645B6C03F480630493049B9EE742
:1022A00000200140002201400038024000000240AE
:1022B000000802402C2100207064024010B584B058
:1022C0000023009301930293039300900123019351
:1022D00010280AD0062302936946134803F0ECFB4A
:1022E00028B10024204604B010BD0723F3E70E48B0
:1022F00003F00EFA80B10024F4E7013B0A4A1268A9
:10230000126812F0020F01D1002BF6D13BB9002464
:10231000054803F09FFAE5E744F62063EEE702483C
:1023200003F07CFB84B2F3E78C21002010B582B06F
:1023300000240094264B1A6B42F400121A631A6BA5
:1023400002F400120092009A01941A6B42F4800287
:102350001A631B6B03F480030193019B2246022145
:102360000B2004F011FC0B2004F01EFC224602217D
:102370000E2004F009FC0E2004F016FC2246032176
:102380000F2004F001FC0F2004F00EFC2246022175
:102390002F2004F0F9FB2F2004F006FC2246032135
:1023A0003A2004F0F1FB3A2004F0FEFB2246022121
:1023B0003C2004F0E9FB3C2004F0F6FB224603211C
:1023C000462004F0E1FB462004F0EEFB02B010BD15
:1023D0000038024008B50E480E4B03604FF482737C
:1023E000436000238360C3600222026101224261D4
:1023F0004FF400728261C3610362436283620A2305
:10240000C36204F0F3FC00B908BDFFF789FBFBE7EA
:10241000DC2200200038004030B589B0002303934F
:1024200004930593069307930268334B9A4201D0B5
:1024300009B030BD04460025019503F500331A6C40
:1024400042F480421A641A6C02F480420192019AAA
:1024500002951A6B42F002021A631B6B03F002032F
:102460000293029B4FF460430393022304930323DC
:1024700006930523079303A9204803F0BFFF2048D4
:10248000204B036045608560C5604FF48063036145
:1024900045618561C5614FF400330362456204F014
:1024A0003BF918BB164BE3649C631748174B03605A
:1024B0000023436040228260C3604FF48062026167
:1024C00043618361C3614FF400320262436204F0EE
:1024D00023F970B90C4BA3649C63002204212420CF
:1024E00004F052FB242004F05FFBA1E7FFF718FB88
:1024F000D8E7FFF715FBEDE7003800400004024085
:102500007C220020586002401C22002070600240A3
:1025100010B58AB000230593069307930893099397
:1025200003682E4A934207D02D4A93422DD02D4A5C
:1025300093423ED00AB010BD002401942A4B1A6C7D
:1025400042F004021A641A6C02F004020192019A29
:1025500002941A6B42F002021A631B6B03F002032F
:102560000293029B4FF4E0730593022306930993B1
:1025700005A91E4803F042FF224621461E2004F012
:1025800003FB1E2004F010FBD4E700220392164B3D
:10259000196C41F0100119641B6C03F010030393D4
:1025A000039B0321362004F0EFFA362004F0FCFAF6
:1025B000C0E7002204920C4B596C41F002015964AF
:1025C0005B6C03F002030493049B02212C2004F0B3
:1025D000DBFA2C2004F0E8FAACE700BF000800406A
:1025E0000010004000040140003802400004024096
:1025F00000B587B0002301930293039304930593DE
:10260000026803F1804303F582339A4202D007B097
:102610005DF804FB002300930A4B1A6B42F004029E
:102620001A631B6B03F004030093009B4FF4E073E9
:102630000193022302930323059301A9024803F0A7
:10264000DDFEE4E7003802400008024030B597B0F4
:1026500000241294139414941594109411940994D2
:102660000A940B940C940D940E940F9420252A46F2
:10267000214601A806F044FD3E483F4B03604460FC
:10268000856041F26703C360046101234361846193
:1026900005F096F8002852D14FF48053129312A9F6
:1026A000344805F098F900284CD1324805F0B4F8C8
:1026B00000284AD1702310930023119310A92D48AC
:1026C00005F096FA002843D16023099300220A926C
:1026D0000B920C920D920E920F9209A9254805F0CB
:1026E000FFF8002837D1042209A9224805F0F8F89C
:1026F000002833D1082209A91E4805F0F1F880BB53
:102700007023099340F63C730A930C2209A91948D7
:1027100005F0E6F840BB0023019302930393049372
:1027200005934FF400520692089301A9114805F051
:10273000A5FAE0B90F48FFF75BFF17B030BDFFF710
:10274000EFF9A9E7FFF7ECF9AFE7FFF7E9F9B1E730
:10275000FFF7E6F9B8E7FFF7E3F9C4E7FFF7E0F9B9
:10276000C8E7FFF7DDF9CBE7FFF7DAF9D3E7FFF7C3
:10277000D7F9DFE7342300200004014008B50A48F8
:102780000A4B03604FF4E133436000238360C3606E
:1027900003610C2242618361C36105F0C2FB00B991
:1027A00008BDFFF7BDF9FBE7D4250020005000402D
:1027B00008B50A480A4B03604FF4E1334360002335
:1027C0008360C36003610C2242618361C36105F0D1
:1027D000A8FB00B908BDFFF7A3F9FBE78C25002093
:1027E000001001402DE9F0438BB00446002305930F
:1027F00006930793089309930368724A934205D09E
:10280000714A93427DD00BB0BDE8F083002500955E
:102810006E4B1A6C42F480121A641A6C02F4801225
:102820000092009A01951A6B42F004021A631A6B27
:1028300002F004020192019A02951A6B42F008021A
:102840001A631B6B03F008030293029B4FF480533F
:1028500005934FF00209CDF818904FF00308CDF81A
:1028600020800827099705AE3146594803F0C6FD78
:1028700004230593CDF818900795CDF8208009978B
:102880003146544803F0BAFD5348544B03604FF0AF
:10289000006343608560C5604FF4806303614561F8
:1028A0008561C5610562456203F036FF18BB4A4B7E
:1028B000E3639C634A484B4B03604FF00063436003
:1028C000402383600023C3604FF480620261436150
:1028D0008361C3610362436203F01EFF70B9404B22
:1028E000A3639C6300220221352004F04DF93520BA
:1028F00004F05AF987E7FFF713F9D8E7FFF710F963
:10290000EDE700250395314B5A6C42F010025A64F2
:102910005A6C02F010020392039A04951A6B42F06B
:1029200001021A631B6B03F001030493049B4FF431
:10293000C063059302230693032308930723099397
:1029400005A9294803F05AFD2848294B03604FF098
:10295000006343608560C5604FF480630361456137
:102960008561C5610562456203F0D6FE18BB1F4B49
:10297000E3639C631F48204B03604FF00063436098
:10298000402383600023C3604FF48062026143618F
:102990008361C3610362436203F0BEFE70B9154BED
:1029A000A3639C6300220321252004F0EDF8252079
:1029B00004F0FAF827E7FFF7B3F8D8E7FFF7B0F825
:1029C000EDE700BF00500040001001400038024019
:1029D00000080240000C02402C250020106002403C
:1029E000CC240020B8600240000002406C2400208B
:1029F000406402400C240020B8640240FEE7FEE779
:102A0000FEE7FEE7FEE770477047704708B504F041
:102A100023F908BD08B5024803F074FF08BD00BFE4
:102A20002C25002008B5024803F06CFF08BD00BF4C
:102A30007C22002008B5024803F064FF08BD00BFF7
:102A40001C22002008B5024804F0A3FD08BD00BF09
:102A5000C423002008B5024804F034FC08BD00BFC0
:102A6000DC22002008B5024805F092FB08BD00BF3B
:102A70008C25002008B54FF4806003F0C3FD4FF4AF
:102A8000805003F0BFFD08BD08B5024804F081FD89
:102A900008BD00BF3423002008B5024803F032FF10
:102AA00008BD00BFCC24002008B5024805F070FB2B
:102AB00008BD00BFD425002008B5024804F069FD18
:102AC00008BD00BF7C23002008B5024803F01AFFB0
:102AD00008BD00BF6C24002008B5024803F012FFB7
:102AE00008BD00BF2C21002008B5024803F00AFFF2
:102AF00008BD00BF0C24002082B0002100910B4BC8
:102B00005A6C42F480425A645A6C02F48042009239
:102B1000009A01911A6C42F080521A641B6C03F007
:102B200080530193019B02B0704700BF0038024000
:102B3000022801D801487047002070470000024079
:102B4000012804D0022804D028B9012070470220AF
:102B50007047042070470020704738B50546FFF7DE
:102B6000E7FF04462846FFF7EBFF04B100B938BD84
:102B700001220146204603F03EFDF8E738B5054640
:102B8000FFF7D6FF04462846FFF7DAFF0CB10546EB
:102B900000B938BD0146204603F026FDB0FA80F2A8
:102BA00052092946204603F026FDF2E708B5002029
:102BB000FFF7D3FF0120FFF7D0FF0220FFF7CDFF83
:102BC00008BD08B5FFF7F2FF08BD002856D02DE973
:102BD000F04792B0884616461D460446002B50D05A
:102BE000837A002B50D00368002B41D04368002B20
:102BF00041D0571C202F04D96FF0060012B0BDE859
:102C0000F0870DF108093A460021484606F078FAA7
:102C10000DF1280A3A460021504606F071FA68F094
:102C20007F018DF8081000222189606803F0E3FC21
:102C3000642300933B4652464946206804F017FA45
:102C4000074601222189606803F0D5FC77B16FF057
:102C50000300D3E74B1C01F149026A4412F8202C0F
:102C60006A5499B28E42F5D80120C7E70021F9E7EE
:102C70006FF00100C2E76FF00100BFE74FF0FF30D7
:102C800070474FF0FF30B9E76FF00600B6E7002855
:102C900047D0F0B583B00F4616460446837A002B22
:102CA00042D00368A3B34068A8B301F07F038DF856
:102CB00004308DF805200022218903F09CFC642358
:102CC000022201A9206804F0F0F8054601222189BA
:102CD000606803F090FC1DB16FF0020003B0F0BD1E
:102CE0000A2003F0CBFF00238DF803300DF103031E
:102CF000012239462046FFF768FF00280EDB9DF8C9
:102D00000330B34202D06FF00400E7E70120E5E7AB
:102D10006FF00100E2E76FF00100DFE76FF0030002
:102D2000DCE74FF0FF3070476FF00900D6E7E0B105
:102D3000F8B50F4615461E46044640F6EC520021F3
:102D400006F0DEF92760656026810123A3724FF04B
:102D50007E52E260226162652265E26425B11A4614
:102D60003146284603F047FCF8BD704748B108B526
:102D70000A46C17A914207D0C2727621FFF787FFD7
:102D800008BD4FF0FF3070470120F9E720B330B5A0
:102D900083B00C4605460021FFF7E8FF00238DF8BD
:102DA00007300DF10703012250212846FFF70DFFE0
:102DB000002814DB9DF8072022F00F0204F00F0119
:102DC0000A438DF8072050212846FFF760FF0028AE
:102DD00008DB012003B030BD4FF0FF3070476FF0CB
:102DE0000100F7E76FF00200F4E720B330B583B0DD
:102DF0000C4605460021FFF7B9FF00238DF8073088
:102E00000DF1070301224F212846FFF7DEFE0028BF
:102E100014DB9DF8072022F00F0204F00F010A4393
:102E20008DF807204F212846FFF731FF002808DBE7
:102E3000012003B030BD4FF0FF3070476FF001004C
:102E4000F7E76FF00200F4E768B110B5044600211F
:102E5000FFF78CFF012211212046FFF718FF012008
:102E600003F00CFF10BD7047A8B110B582B0044646
:102E70000021FFF77BFF00238DF807300DF10703DA
:102E8000012275212046FFF7A0FE002805DB9DF8F2
:102E9000070002B010BDFF207047FF20F9E70000D7
:102EA00090B330B583B00C4605460021FFF75EFFB6
:102EB00000238DF807300DF1070301225021284629
:102EC000FFF783FE002822DB9DF8072002F01F0297
:102ED00042EA4412D2B28DF8072050212846FFF76B
:102EE000D6FE002816DBC4F10404012000FA04F425
:102EF00007EE904AF8EEE77A9FED087A67EE877A58
:102F0000C5ED037A03B030BD4FF0FF3070476FF06E
:102F10000100F7E76FF00200F4E700BF000000389F
:102F2000A0B330B583B00C4605460021FFF71EFF65
:102F300000238DF807300DF1070301224F212846A9
:102F4000FFF743FE002824DB9DF8072002F01F0254
:102F500042EA4412D2B28DF807204F212846FFF7EB
:102F600096FE002818DB012000FA04F407EE904AD0
:102F7000F8EEE77ADFED0A6A86EEA77ADFED097AE6
:102F800067EE277AC5ED047A03B030BD4FF0FF300D
:102F900070476FF00100F7E76FF00200F4E700BF41
:102FA0000000FA4400000038002834D010B588B082
:102FB000044604AB0E221D21FFF707FE00282DDB7F
:102FC00000220EE0530008A901EB420111F8100C99
:102FD00021336B4413F8103C43EA002321F8203CD2
:102FE0000132062AEED9BDF900302386BDF9023040
:102FF0006386BDF90430A386BDF90630E386BDF9CA
:1030000008302387BDF90A306387BDF90C30A387E8
:10301000012008B010BD4FF0FF3070476FF0010085
:10302000F7E7000010B50446FFF7BEFF002853DBAA
:10303000B4F9303007EE103AB8EEC77ADFED286AFF
:10304000C7EE267AB3EE097A77EE877AC4ED057A71
:1030500000233DE003F1180204EB4202B2F9022022
:1030600007EE902A94ED037AF8EEE77A67EE877A16
:1030700003F1100204EB820292ED007A77EEC77A38
:1030800003F1120204EB820292ED017A67EE877A75
:103090009A1D04EB8202C2ED007A03F11C0234F99E
:1030A000122007EE902A94ED047AF8EEE77A67EEA4
:1030B000877A03F1160204EB820292ED007A77EE32
:1030C000C77A03F1080204EB8202C2ED017A0133F0
:1030D000022BBFDD012010BD4FF0FF30FBE700BF2A
:1030E000E17A0443002850D030B585B0044603216E
:1030F000FFF716FF00284BDB00250195029503958D
:10310000B5F57A7F35D22046FFF78CFF002842DBE9
:1031100094ED097AD4ED167A37EE277ADFED207A2E
:10312000C7EE276A9DED017A37EE267A8DED017A9A
:1031300094ED0A7AD4ED176A37EE267AC7EE276A3D
:103140009DED027A37EE267A8DED027A94ED0B7AB8
:10315000D4ED186A37EE267AC7EE276ADDED037ADA
:1031600077EEA67ACDED037A012003F087FD0135D5
:10317000C6E7019BA365029BE365039B23660021D1
:103180002046FFF7CDFE012007E04FF0FF307047EB
:103190006FF0010001E06FF0020005B030BD00BF2C
:1031A00000007A4440B310B50446FFF74DFE2046B8
:1031B000FFF75AFE472822D10F224E212046FFF763
:1031C00066FD00281EDB00212046FFF769FE00286F
:1031D0001BDB00212046FFF7A3FE002818DB04219B
:1031E0002046FFF7D3FD04212046FFF7FEFD2046D1
:1031F000FFF778FF012010BD4FF0FF3070476FF0F0
:103200000200F8E76FF00300F5E76FF00400F2E763
:103210006FF00500EFE7000010B190ED060A70476F
:103220009FED010A704700BF0000000010B190ED53
:10323000070A70479FED010A704700BF00000000B9
:1032400010B190ED080A70479FED010A704700BF6A
:103250000000000010B190ED090A70479FED010ACF
:10326000704700BF0000000010B190ED0A0A7047DF
:103270009FED010A704700BF0000000010B190ED03
:103280000B0A70479FED010A704700BF0000000065
:103290002DE9F04102223349334802F0FBFA98B994
:1032A000304B198889B25C88A4B2304A7AB12D4B70
:1032B000188880B2B3F802C01FFA8CFC814208D192
:1032C000644506D1013AF1E7FEF72AFCE8E7A44697
:1032D00008464FF0000E7446754620E062460346ED
:1032E000204F398889B240F6E44606FB01F12048B8
:1032F000A0FB018CA1EB0C010CEB510C05EBDC25C8
:10330000798889B206FB01F1A0FB0160091A00EB84
:10331000510004EBD0240EF1010E94461846BEF184
:10332000C70F0ED84CF250310029D7D00D4A138860
:103330009BB2528892B29842D2D19445D0D10139F1
:10334000F2E70C49A1FB05239B09064AD360A1FBC8
:1033500004139B09136100235367C2F88030BDE852
:10336000F08100BF10000020D4210020400D030098
:10337000010110001F85EB5108B51020FEF79EFFDC
:10338000E0B1024640F6E44303FB02F20C4BA3FB20
:103390000213D21A03EB5203DA0AA2F53E7303EBCF
:1033A0008303DB0003F6C41003F5CB53043344F26C
:1033B00074018B4202D8034B5A61986208BD00BF6A
:1033C0000101100010000020DFED167A21EE271A0F
:1033D000154BD3ED217A9FED157A67EE877A31EEA2
:1033E000271A83ED211ADFED126A20EE260AD3EDAB
:1033F0001D7A9FED107A67EE877A30EE270A83ED0B
:103400001D0A60EEA60AD3ED207A67EE877A70EE89
:10341000A70AC3ED200A80ED000AD3F880300B60C4
:10342000704700BFCDCCCC3D100000206666663FE3
:103430003333B33E6666263F70B582B006460D460E
:10344000284C218889B240F6E44000FB01F1264B6C
:10345000A3FB01C2891A02EB5102D20A618889B228
:1034600000FB01F1A3FB0103C91A03EB5103DB0AC3
:103470006260A360E168521A00EE102AB8EEC00A3A
:1034800022699B1A00EE903AF8EEE00AFDEEC07A4F
:10349000C4ED067AFDEEE07AC4ED077AD4ED0A7A3F
:1034A000F8EEE77A002301930093694601A89FEDA7
:1034B0000F1A27EE811AFFF787FF9DED017AFDEEC7
:1034C000C77AC4ED087ADDED007AFDEEE77AC4ED47
:1034D000097A0EB186ED007A0DB1009B2B6002B027
:1034E00070BD00BF10000020010110000AD7233C6E
:1034F0004FF07E530360002343608360C360024B40
:1035000003610023037570479A99193E10B52DED9C
:10351000028B0446B0EE408AF0EE418AFFF7E8FFE6
:10352000F0EE680AB0EE480A07F0F2FEF6EE007A16
:1035300020EE278AB0EE480A07F032FF84ED000A39
:10354000B0EE480A07F06CFF84ED020A01232375F0
:10355000BDEC028B10BD10B52DED108B0446B0EE06
:1035600061BAB0EE429AF0EE628AB0EE43EAD0ED74
:1035700000DAD0ED01CA90ED02CA90ED03DAD0ED89
:1035800004EA6CEEC0AA6CEE207A7AEEE7AA6DEE41
:10359000017A7AEEE7AAF6EE007A6AEEA7AA2DEE95
:1035A00080AA2CEE017A3AEE07AA2DEE207A3AEEA6
:1035B00047AA2AEE27AA6DEEA09A2CEE817A79EE20
:1035C000C79A2DEE007A79EE879A69EEA79A2DEECA
:1035D000818A6CEEA00A38EE208A2CEE000A38EEC2
:1035E000408A28EE278AF5EE401AF1EE10FA0AD149
:1035F000B5EE402AF1EE10FA05D1F5EE402AF1EED3
:1036000010FA00F0B8806BEE0B7A29EE097A77EEAB
:10361000877A28EEA80A37EE800A07F09FFEB7EEF9
:1036200000FACFEE007A6BEE271A29EE272A68EE11
:10363000A72A3DEEAD1A3CEEAC5A7CEE0C5A7DEE5C
:103640000D3AB1EE006A6DEE868A6CEE860A6CEE7B
:10365000064AB2EE004A2CEE840A2CEE044A2DEE05
:10366000AD7A6CEEAC7A6CEE0C6A2DEE0D3A68EE2B
:10367000A6BA21EEA59A7BEE89BA68EEA78A7BEE00
:10368000A8BA62EE058A7BEEE8BA20EE839A61EE74
:10369000A38A39EE689A27EE067A67EE2C8A39EE0D
:1036A000289A62EE018A39EE689A39EE609A60EEE5
:1036B000278A39EE289A20EE260A39EE009A62EE21
:1036C000A00A39EE209A67EE0C8A21EE811A78EE74
:1036D000818A24EE833A78EE838A62EE233A78EE8A
:1036E000E38A78EEE48A24EE277A78EE878A24EE5D
:1036F000264A78EE848A62EEA42A78EEA28A27EE21
:1037000086BA2BEE0DBA61EE851A3BEE61BA66EE13
:10371000866A66EE8D6A3BEE26BA22EE252A3BEEDD
:1037200042BA6BEEAB7A29EE097A77EE877A28EE09
:10373000A87A77EE877A2BEE0B0A37EE800A07F02D
:103740000DFECFEE007A6BEEA7BA29EE279A68EE4F
:10375000A78A2BEE27BA6EEEABBA7AEEEBAA2EEE64
:10376000899A3AEE49AA6EEEA88A79EEE89A6EEE48
:103770008BEA38EE6E8A6AEE8EAA7AEEADAA2AEE4F
:103780000EAA3AEE2CAA69EE8E9A79EE8C9A28EE61
:103790000E8A38EE0D8A6AEEAA7A2AEE0A7A77EE57
:1037A000877A29EEA97A77EE877A28EE080A37EE2B
:1037B000800A07F0D3FDB7EE007AC7EE007A6AEE12
:1037C000A7AAC4ED00AA2AEE27AA84ED01AA69EEF1
:1037D000A79AC4ED029A28EE278A84ED038ABDECED
:1037E000108B10BD08B590ED000AD0ED027A20EEE6
:1037F000270AD0ED037A90ED017A67EE877A30EEF2
:10380000670A30EE000A07F057FD08BD08B5FFF75C
:10381000E9FFDFED027A20EE270A08BDE12E6542BE
:103820000A88D3B258400301DBB280EA030C604639
:10383000030243EA12231BB283EACC0383EA1C137C
:103840000B80704730B583B004464FF6FF73ADF878
:10385000063006E00DF1060114F8010BFFF7E0FF5A
:1038600029464B1E9DB20029F4D1BDF8060003B0D5
:1038700030BD70B506460C4605E0314614F8010B24
:10388000FFF7CEFF2A46531E9DB2002AF5D170BD28
:103890002DE9F04FC9B08146D0F808A0D0F80CB09F
:1038A0000269436980690090D9F81C000190D9F839
:1038B00020000290D9F824000390002405E051F87C
:1038C000245008A840F8245001340F2CF7DD1020B4
:1038D00020E0811E08AC54F821504FEAF54181EAFE
:1038E000754181EA9521C51F54F825502944A0F15E
:1038F0000F0554F825604FEAB64585EAF61585EAC6
:10390000D6052944A0F1100554F82550294444F85F
:10391000201001303F28DCDDDDF80CE0029E019F25
:103920000099984614465D46D4460020CDF810A074
:10393000F246CDF814B00692079330E04FEAF12E2C
:103940008EEAB11E8EEA716ED64401EA070226EABB
:10395000010A82EA0A027244254B53F820301A44C5
:103960000DF1200E5EF820301A444FEA7C3A8AEAC4
:10397000BC0A8AEABC5A85EA040E0EEA0C0E05EA75
:10398000040B8EEA0B0ED6440130B2463E460F467B
:1039900008EB0201A0462C46654602EB0E0C3F28C0
:1039A000CCDDD646DDF810A0DDF814B0069A079BF2
:1039B0000CEB0A00C9F808005D44C9F80C50144427
:1039C000C9F810404344C9F81430009B1944C9F8A1
:1039D0001810019B1F44C9F81C70029B1E44C9F8B3
:1039E0002060039B7344C9F8243049B0BDE8F08FD0
:1039F0005CD7000800B54FF0E90C4FF0000EE6452B
:103A000020D20EEB0C0301335A0823F0010101EB25
:103A100053030E4951F8233083420ED883420FD30B
:103A200002EB4203094951F8233083420CD102EBE7
:103A3000420201EB82005DF804FB02F1FF3CDEE78D
:103A40009646DCE77246EBE70020F4E764CC00081A
:103A5000044B188880B2044B1B889BB2C01AC0F379
:103A6000080070470E2B00200C2B002080B110B5F1
:103A70000146084B1C78032C09D840F22312064853
:103A800002FB040005F0BBFB0134024B1C7010BDAF
:103A9000704700BF102D0020142D0020074B1B780D
:103AA00033B942F20F73984205D9054B1868704735
:103AB000034B186870474FF47A707047DC3200206F
:103AC0009C00002008B51C4B1B788BB11B4B93F856
:103AD0004130212B2FD01A490B881A4A128892B2F2
:103AE00012FA83F3C3F308030B80134B00221A70FE
:103AF000FFF7AEFF0246F0B1114B1B8810FA83F3BB
:103B00009BB2B3F5007F05D90D4B1A8892B2C2F56E
:103B1000007292B20B4B1A80074B01211970084BAF
:103B20001988094B13FA81F1044804F08FFA10B197
:103B3000014B00221A7008BD082B0020D42500205C
:103B40000C2B00200A2B0020102B002008B5104B56
:103B50001A88104B1B88D1B192B29BB28E469B1A29
:103B6000013BC3F30803994211D8002309E010F880
:103B700003C0094901F802C00132C2F3080201334F
:103B80009BB27345F3D3024B1A80FFF79BFF08BD2E
:103B90000E2B00200C2B0020102B00202DE9F041D3
:103BA00005460E46CC788A78FE2A01D00C3117E003
:103BB000027044708B798370CB79C3700B7A037178
:103BC0004B7A4371CA780C31063005F018FBF37854
:103BD00006331D444FF00508002730E0013CE4B2F5
:103BE000012C04D90B1913F8013C002BF6D02A70D4
:103BF0006C703379AB707379EB70B3792B71F379A7
:103C00006B71337AAB71737AEB71737AB27A43EA80
:103C10000223F27A43EA02431B0A2B72F37A6B7295
:103C2000224605F10A0005F0EAFA04F10A031D44F0
:103C3000377917F001070FD04FF009080D273388A7
:103C40002B7033881B0A6B704FB908EB0403F8180C
:103C5000033080B2BDE8F0814FF00908EFE73A4643
:103C600006F58B71A81C05F0CAFAEEE72DE9F041C4
:103C700090B007460E461546036803EBC202026089
:103C80009A4202D2426801324260C3F3C5080CE096
:103C900007F1280022463146404405F0B0FAA0441E
:103CA00026442D1BB8F1400F06D03DB3C8F14004A7
:103CB000A542EDD22C46EBE707F12802002314E0E1
:103CC00002EB830E0DEB830C9EF803100DF823100E
:103CD0009EF802108CF801109EF801108CF802106A
:103CE00012F823108CF8031001330F2BE8DD69461E
:103CF0003846FFF7CDFD4FF00008D6E710B0BDE81D
:103D0000F081F0B593B004460E460568ED08C5F1A4
:103D1000770505F03F0580238DF80030472200210C
:103D20000DF1010005F0ECF9226805F150036B4438
:103D300003F8482C23681A0A05F14F036B4403F873
:103D4000482C628805F14E036B4403F8482CE27856
:103D500005F14D036B4403F8482C626805F14C03F0
:103D60006B4403F8482C63681A0A05F14B036B4453
:103D700003F8482CE28805F14A036B4403F8482C09
:103D8000E37905F149020DEB020707F8483C05F11C
:103D9000090269462046FFF769FFE37A3370A37A88
:103DA0007370637AB370237AF370E37B3371A37B10
:103DB000737113B0F0BD0000002859D0F0B59DB06C
:103DC0000C4616461D460146007810F0010001D150
:103DD0001DB0F0BD4A78234603F8012B91ED027B1C
:103DE0008DED007B0098C4F80100BDF804209A8096
:103DF0008B68CA68013342F100028B60CA600023FD
:103E0000029303931B4B04931B4B05931B4B06938D
:103E10001B4B07931B4B08931B4B09931B4B0A939C
:103E200003F17453A3F52303A3F692430B9302AF5C
:103E3000202210313846FFF719FF2A46314638460E
:103E4000FFF714FF9DF88C2022993846FFF70EFFEC
:103E5000022224993846FFF709FF072221463846F7
:103E6000FFF704FFE11D3846FFF74BFF0D20AFE7DA
:103E70000020704767E6096A85AE67BB72F36E3C47
:103E80003AF54FA57F520E518C68059BABD9831F25
:103E90002DE9F04F89B005461E469DF84CC01B7BAE
:103EA00013F002030AD13069002868D0007810F0BE
:103EB000010F68D14FF00008474602E04FF00008BC
:103EC0004746002B63D0FE20A8709DF848C006240A
:103ED00085F803C0E9712A7200222A71B8F1000F37
:103EE00001D001222A7100226A71B279AA710132CD
:103EF000B271AA788DF81420EA788DF81520002B7D
:103F00005BD0AB798DF81630EB798DF817302B7AC2
:103F10008DF818306B7A8DF81930A246611E89B27F
:103F20000DF11500FFF78EFCADF8120005F10C093C
:103F30000DF1120BEA7849465846FFF79AFC5946AC
:103F40009DF85000FFF76CFCEB789DF8122009F803
:103F50000320EB780133BDF81220120A09F8032080
:103F6000BDF812302B80B8F1000F45D1EB789A44A0
:103F700007EB0A00023080B209B0BDE8F08F4FF0C5
:103F8000000847469DE74FF001080D2799E7FD20FF
:103F9000A87005F10C0003E00CF1FF3C5FFA8CFC0B
:103FA000BCF1010F07D900EB0C0414F8014C002CF4
:103FB000F2D00A248CE70A248AE72B798DF8163090
:103FC0006B798DF81730AB798DF81830EB798DF867
:103FD00019302B7A8DF81A306B7AAA7A43EA0223C9
:103FE000EA7A43EA02438DF81B301A128DF81C203E
:103FF0001B148DF81D3090E7EB7809EB0302029259
:104000000193CDF80090234605AA05F58B71306920
:10401000FFF7D2FEAAE7000010B588B086460C462E
:1040200094460C9A05928DF818309DF828308DF83A
:1040300019309DF82C308DF81A309DF834308DF8F9
:104040001B3003238DF81C3005AB03CBCCF80C00E0
:10405000CCF810101B788CF8143000238CF8093041
:104060008CF80A308CF80B30322302930923019329
:104070000093044B224671466046FFF709FF08B0E3
:1040800010BD00BFA82A002010B588B086460C4697
:104090009446ADF814309DF828308DF816309DF810
:1040A0002C308DF817300C9B06939DF834308DF82A
:1040B0001C309DF838308DF81D3005AB03CBD06037
:1040C00011611B88938200234D228CF809208CF803
:1040D0000A308CF80B308F2302930A2301930323B9
:1040E0000093044B224671466046FFF7D1FE08B0AC
:1040F00010BD00BFA82A002010B586B09DF8204052
:104100000494039300230293FF23019300920B4630
:1041100002469A210120FFF7B7FF06B010BD10B587
:10412000CCB003AC009313460A4601462046FFF785
:10413000E3FF2046FFF79AFC4CB010BD08B511B163
:1041400005F05DF808BD04F0DBFFFBE72DE9F04169
:1041500092B006460F461446199A05928DED0A0A4A
:10416000CDED0B0A8DED0C1A1C9A0D92BDF868204E
:10417000ADF838208DF83A309DF860308DF83B303E
:10418000CDED0F1A8DED102A9DF874308DF8443066
:1041900010221B9906A8FFF7D1FF05AD04F10C0C06
:1041A0000DF14408AE46BEE80F00CCF80000CCF894
:1041B0000410CCF80820CCF80C3075460CF1100C2B
:1041C000C645EFD19EF800308CF800301D23637295
:1041D0000123A3720023E372892302933123019305
:1041E00028230093044B3A4631462046FFF750FE01
:1041F00012B0BDE8F08100BFA82A0020F0B5ABB036
:1042000005460E461446DDE93601CDE90401069364
:10421000339B0793349B08938DED090ACDED0A0A71
:104220008DED0B1ACDED0C1A8DED0D2ACDED0E2A6C
:10423000BDF8E030ADF83C30BDF8E430ADF83E30CC
:104240009DF8E8308DF8A0303B9BCDF8A1302022BE
:10425000309910A8FFF772FF2022319918A8FFF7B4
:104260006DFF2022329920A8FFF768FF95273A4674
:1042700004A904F10C0004F0C2FF1B2363720123A4
:10428000A3720023E3724A230293019790230093C1
:10429000034B324629462046FFF7FAFD2BB0F0BD0E
:1042A000A82A002070B505460C46C678212E28BFE6
:1042B000212621220021204604F022FF324605F16A
:1042C0000C01204604F09BFF70BD70B505460C46FE
:1042D000C678232E28BF232623220021204604F05F
:1042E0000FFF324605F10C01204604F088FF70BD37
:1042F00070B505460C46C678202E28BF2026202201
:104300000021204604F0FCFE324605F10C01204657
:1043100004F075FF70BD000070B52DED048B8AB000
:104320000446B0EE609A0D461646F6EE007A20EE90
:10433000270ADFED1C9A60EE298AB0EE680A07F0C2
:104340002FF88DED060A9FED188A8DED078AB0EEE5
:10435000680A07F065F88DED080A8DED098A29EEE7
:10436000299A02F085FC0346104A12880120059024
:104370000021049106A90391029201930096B0EEE8
:10438000482AF0EE481AB0EE481AF0EE490AB0EEAC
:10439000480A2B4622469A21FFF7D8FE0AB0BDEC08
:1043A000048B70BD35FA8E3C00000000D032002036
:1043B00010B58CB0044602F05BFC03469FED160A74
:1043C000E0210B9101200A900022099208919FEDB3
:1043D000107B8DED067B04924FF4807203920F4A9E
:1043E00002920F4A01920F4A0092F0EE402AB0EE7C
:1043F000402ADFED0D1A9FED0D1AF0EE400A22461D
:104400009A21FFF7FBFE0CB010BD00BFAFF3008098
:1044100000000000000000000000000014CB0008B5
:1044200024CB00082CCB0008DB0FC93FDB0FC9BF32
:1044300010B5CAB001AC2046FFF7BAFF2046FFF71F
:1044400015FB4AB010BD00002DE9F043CDB0044685
:1044500015461E4640F2FF13984240D0B0F5007F4B
:1044600078D1D1ED007AFCEEE77A17EE903A40F27F
:104470001B12934209D040F21D1293420ED03346D4
:104480002A460321FFF74BFE68E0FFF7D1FF3346D2
:104490002A4600212046FFF742FE5FE0314B1B68B1
:1044A000B3B101AF002201920DF10808029241461A
:1044B000384698470DF10C0932462946DDED020ACF
:1044C0009DED010A4846FFF727FF4846FFF7CEFA61
:1044D00033462A4600212046FFF721FE3EE0D1ED7B
:1044E000007AFCEEE77A17EE902AD1ED017AFCEE25
:1044F000E77A17EE903A3BB11B49A1FB030189090A
:10450000B3F57A7F11D30B4640F21B118A420ED0CD
:1045100040F21D118A4216D1144A136033462A46CE
:1045200000212046FFF7FBFD18E00123ECE7104ACD
:104530001360104B01221A7033462A460021204690
:10454000FFF7EDFD0AE033462A4603212046FFF738
:10455000E6FD03E033460321FFF7E1FD4DB0BDE882
:10456000F08300BFD4320020D34D621098000020A9
:104570009C000020DC320020002800F0DC802DE9C7
:10458000F047A0B00C461546064602F1020A02F5B5
:104590008B7902F21D18002306930793674B08934B
:1045A000674B0993674B0A93674B0B93674B0C93CD
:1045B000674B0D93674B0E9303F17453A3F52303DD
:1045C000A3F692430F9306AF202200F11001384664
:1045D000FFF74CFB0A2251463846FFF747FBEA78C3
:1045E00005F10C013846FFF741FB022205F58A71FF
:1045F0003846FFF73BFB072249463846FFF736FBB4
:104600000DF1100949463846FFF77BFB062241466B
:10461000484604F065FD30B1022386F834300020AE
:1046200020B0BDE8F08795F8167100220023CDE98F
:10463000022305F2171ED5F817010290B5F81B31B9
:10464000ADF80C300CB1002306E0032386F83430BB
:104650000020E5E701339BB222889A4214D995F8ED
:1046600007C003EBC3002044C1788C45F2D1287AFF
:1046700003EBC301214409798842EBD103EBC30169
:1046800021448978B942E5D19A4223D10F2A17D81B
:104690000299314811EB000C039840F10008B06812
:1046A000F168844578EB01000FD3E87903EBC3018F
:1046B0002144C870287A08718F70013222801DE071
:1046C000042386F834300020AAE7052386F8343026
:1046D0000020A5E700200021CDE9000103EBC30283
:1046E0002244D2F805000090B2F80920ADF8042069
:1046F000029A90420399019A8A4117D203EBC303AD
:104700001C44D5F81731C4F80530BEF80430A4F8BD
:1047100009300299039AB068F3688842934101D244
:10472000B160F260012086F8340079E7062386F84C
:104730003430002074E70120704700BF67E6096A43
:1047400085AE67BB72F36E3C3AF54FA57F520E51B2
:104750008C68059BABD9831F808D5B002DE9F043EE
:1047600083B005460C4690461F460A9E00230B70F8
:10477000CB78102B00F29E81DFE813F011001100BE
:10478000360052006D007D008D009D00AD00CC0014
:10479000E9000B0124015601560191019101B8F184
:1047A000FD0F12D0B8F1FE0F40F084810223CB70D0
:1047B0000023C37080F802800B7B43F001030B736E
:1047C0004FF0FF330370437074E10223CB7000237A
:1047D000C37080F802800B7B23F001030B734FF052
:1047E000FF330370437065E180F8038000230B7191
:1047F0000388ADF806300DF106014046FFF710F8CA
:10480000BDF806302B80237B13F0010F05D0002369
:104810002B716B710523E3704CE10323E37049E1D5
:1048200080F80480B8F1010F07D98B7801338B70C1
:1048300000230B700123CB703CE10388ADF80630F8
:104840000DF106014046FEF7EBFFBDF806302B8068
:104850000423E3702EE180F805800388ADF806306C
:104860000DF106014046FEF7DBFFBDF806302B8058
:104870000523E3701EE180F806800388ADF806305A
:104880000DF106014046FEF7CBFFBDF806302B8048
:104890000623E3700EE180F807800388ADF8063048
:1048A0000DF106014046FEF7BBFFBDF806302B8038
:1048B0000723E370FEE080F808800388ADF8063037
:1048C0000DF106014046FEF7ABFFBDF806302B8028
:1048D0000823E370EEE080F8098000238372C3723E
:1048E0000388ADF806300DF106014046FEF798FF4B
:1048F000BDF806302B80237B13F0010F07D0EB7837
:1049000013B10B23E370D5E00C23E370D2E009234D
:10491000E370CFE0437A827A43EA0223C27A43EA21
:10492000024343EA08224372C2F307238372120C44
:10493000C2720388ADF806300DF106014046FEF75D
:104940006FFFBDF806302B800A23E370B2E0437A94
:10495000827A43EA0223C27A43EA024343EA0842E4
:104960004372C3F307238372130CC3720388ADF839
:1049700006300DF106014046FEF752FFBDF8063045
:104980002B80EB7813B10B23E37093E00C23E370DF
:1049900090E000F10C030A79511C217103F80280A8
:1049A0000388ADF806300DF106014046FEF738FFEA
:1049B000BDF806302B802279EB789A427AD10C230D
:1049C000E37077E0437A827A43EA0223C07A43EACB
:1049D0000040FFF70FF88146F0B100792B88ADF861
:1049E00006300DF10601FEF71BFFBDF806302B80E7
:1049F000DBB2984515D00E23E37085F81481237936
:104A000099F80620934255D205F10C00D21A0021E4
:104A1000184404F075FB4DE00E23E37085F8148113
:104A200048E00D23E370E8E70E2B03D00388B8EBD2
:104A3000132F11D00223237085F815812B7913F0E1
:104A4000010F0FD02378022B09D00F23E37000232E
:104A500023700D2363732DE001230B70ECE710230B
:104A6000E370F6E7236983B11A6B4AB16B7AA97ACE
:104A700043EA0123E97A43EA01412046904720B9FD
:104A80002378022B01D0032323700123E3708FB11D
:104A900040F223122946384604F0B1FB0AE04B7B72
:104AA000C3F10D03034483F816814B7B013BDBB25A
:104AB0004B73E3B12378012B47D00FB1EB78FB7038
:104AC00066B1E378F37023793371637901337371DD
:104AD00023893381A3787381237B33730023A370ED
:104AE0002378022B3AD0207803B0BDE8F083024649
:104AF00049692069FFF740FD804668B923691A6B50
:104B000052B16B7AA97A43EA0123E97A43EA014177
:104B10002046904700B18046E378102B05D0B8F1CD
:104B2000000F0FD00123237001E002232370012323
:104B3000E370002FBED040F223122946384604F01D
:104B40005EFBB7E703232370F1E7AB796371238939
:104B50000BB90022628101332381AEE7002FC2D05E
:104B600095F8143195F8152143EA02233B80BAE702
:104B700030B583B004460D4600EB40000093134669
:104B80000A461A4901EBC00140F2231C18480CFBED
:104B90000400FFF7E3FD831EDBB2012B01D903B054
:104BA00030BD124904EB4403D80001EBC3039A78EB
:104BB00001329A7000220A540122DA70FD2D01D0D0
:104BC0000020ECE704EB440201EBC2030222DA709E
:104BD000074940F2231303FB04F40B190022DA7097
:104BE0004FF0FF320A555A70EAE700BFA82A0020AA
:104BF0001C26002030B5C5B0644B9B68C3F3172357
:104C00004C2B60D021D8002B4FD04B2B40F0A580EF
:104C10005E4C09A92046FFF758FBBDF84050E379E8
:104C2000227A059204930A98FBF76EFCCDE9020103
:104C30000998FBF769FCCDE900012B46544AC821CD
:104C400012A804F0D3F9044639E0B3F58E7F40F0A2
:104C5000848009A94D48FFF74BFBDDED090AF4EE0E
:104C6000600AF1EE10FA50D69DED0B0AB4EE400A40
:104C7000F1EE10FA49D606F04BFB30EE000ADFEDFC
:104C8000457A60EE277A17EE900AFBF73DFC3F4B22
:104C9000DA791B7A03930292CDE900013E4AC821DA
:104CA00012A804F0A3F9044609E0384B1A7A0092DE
:104CB000DB793A4AC82112A804F098F90446002C7E
:104CC00059DC45B030BD314C09A92046FFF7EAFA5E
:104CD000BDF84050E379227A079206930B98FBF7D0
:104CE00013FCCDE904010A98FBF70EFCCDE90201A3
:104CF0000998FBF709FCCDE900012B46284AC82199
:104D000012A804F073F90446D9E7DDED0E7AF4EE4B
:104D1000677AF1EE10FA15D61C4BDA791B7A0393F9
:104D200002929FED1C7A67EE877A17EE900AFBF7E6
:104D3000EBFBCDE900011B4AC82112A804F056F98B
:104D40000446BCE7114B1A7A0092DB79164AC82157
:104D500012A804F04BF90446B1E70C4AD178D07997
:104D6000127A029201900091104AC82112A804F010
:104D70003DF90446A3E7002000F0F8FBA042A0D3D1
:104D8000224612A9002000F0DDFB9AE7AC3100209A
:104D900088CB0008E12E6542B8CB00083CCB000868
:104DA00050CB0008E8CB000814CC000838CC000831
:104DB00008B50268094B9A4200D008BD08490B8823
:104DC000084A128892B212FA83F3C3F308030B80E5
:104DD000054B00221A70FEF775FEEEE7005000400A
:104DE0000C2B00200A2B0020082B002070B110B5DE
:104DF000C6B001466846FEF7D1FE044648B10146FA
:104E00006846FEF7A3FE204646B010BD4FF0FF30C7
:104E100070476FF00100F7E710B5CEB005AC042382
:104E20000393002302930193082300931A2322463D
:104E30009A210120FFF7F0F82046FFF7D7FF4EB088
:104E400010BD10B5CAB001AC002211462046FFF7D4
:104E500063FA2046FFF7CAFF4AB010BD10B5CAB0CA
:104E600001AC2046FFF7A4FA2046FFF7BFFF4AB087
:104E700010BD00283FD010B590B00446437A827A26
:104E800043EA0223C27A43EA02434C2B03D04B2B62
:104E90001AD010B010BD07A9FFF704FA079B0093C2
:104EA000089B0193099B02930A9B03930B9B04931A
:104EB0000C9B05930D9B0693237AE2796946BDF816
:104EC0003800FFF7C1FAE4E707A9FFF7FEF9079BEF
:104ED0000093089B0193099B02930A9B0393002371
:104EE000049305930693237AE2796946BDF8380066
:104EF000FFF7AAFACDE77047014B1860704700BF73
:104F0000D4320020014B1880704700BFD0320020FF
:104F100008B5114B114A124909780020FFF728FE05
:104F200028B901220E490F4803F09DFA08BD01F08F
:104F30009FFE0D4B186040F2231208490B4804F005
:104F40005EF90B4A1368013313600A4B1B68002B90
:104F5000E7D002489847E4E7F43200200C33002001
:104F6000F0320020D4250020EC320020AC310020AB
:104F7000A8310020E832002008B501220249034888
:104F800003F071FA08BD00BFF0320020D4250020E4
:104F9000014B1860704700BFE832002038B500248C
:104FA000194B1C60194B1C600125194BDD7001F079
:104FB0005FFE184B186001F05BFE174B186001F0A4
:104FC00057FE164B1860164B64221A60154B47F2B9
:104FD00030521A60144B1C70144B1C70144B1C6024
:104FE000144B1C80144B1C80144B1C80144B1C80D5
:104FF000144B1C702A461449144803F034FAFFF786
:105000000BFFFFF72BFF38BDEC320020E832002009
:10501000A82A0020E4320020E0320020D83200200C
:10502000980000209C000020DC320020102D002081
:10503000D4320020D03200200E2B00200C2B002078
:105040000A2B0020082B0020F0320020D42500205D
:1050500030B583B00446304B1B68C31AB3F57A7F72
:1050600023D22046FEF71AFD20B12C4B1B68E31A11
:1050700083421FD22A4B1B68002B31D0294A156866
:1050800075B3294A1268A21A934229D800230093C3
:105090000193254B1C6001A96846A847DDED010A74
:1050A0009DED000AFFF7CDFE1AE01B4B1860FFF7DD
:1050B000B3FED6E7FEF7CCFCC830B0F5007FD9D8F8
:1050C000164B1C60FFF7CAFED4E7013BDBB2174A60
:1050D000137040F22310164A00FB0320FFF786FEF0
:1050E000124B1B78002BF0D1124B1A68124B1B6825
:1050F0009A4204D0114B1B68E31A312B03D8FEF7F8
:10510000E1FC03B030BD0B4B1A680B4B1A600B4B24
:105110001C60FFF76FFDF2E7E4320020E032002070
:1051200098000020D4320020D8320020102D00201A
:10513000142D0020A8310020A4310020A03100202F
:105140008446002210460FE04000C0B280F0070005
:105150000133DBB2072B05D810F0800FF4D14000EB
:10516000C0B2F5E7013292B28A4204D21CF8023092
:1051700058400023EEE7704708B501220249034872
:1051800003F071F908BD00BF403400208C250020D9
:1051900030B583B079238DF80730322301220DF129
:1051A00007012E4802F0EDFE032001F067FD2C4BB5
:1051B0001B681BB100225A639A63DA63294C0022F0
:1051C0004FF40041204601F016FA274D00224FF41B
:1051D0008061284601F00FFA00224FF40061284652
:1051E00001F009FA00224FF48051204601F003FA41
:1051F000002204211D4801F0FEF9184B1B68DA68F3
:1052000022F40052DA605A6922F0C0025A6101F0B9
:1052100057F872B64FF0E022002313615361936197
:105220000FE0134A03F120004FF0FF3142F8201045
:1052300003F1600042F82010BFF34F8FBFF36F8F70
:105240000133072BEDD90B4B19685A680A48836064
:1052500081F3088862B69047FEE700BF8C250020E6
:1052600034230020000002400008024000040240F5
:1052700000E100E00000FF1F00ED00E008B50023A2
:10528000044A1370044A1360044A1370FFF774FF52
:1052900008BD00BF34340020303400202F340020FB
:1052A00010B501F0E5FC2F4B1A782F4B1B783BB162
:1052B0002E4B1B68C31A322B02D92B4B00211970BD
:1052C0002A4B1860284B1B78ABB95A2A0DD0264BB5
:1052D0001B78072B06D9264B1B785A2B27D0224B3D
:1052E00000221A70FFF748FF10BD581C1E490870B5
:1052F0001F49CA54EBE7012B05D0581C1A49087006
:105300001B49CA54E3E7A52A05D05A2A09D0164BEF
:1053100000221A70DBE7581C134908701449CA545C
:10532000D5E7134B1A70104B01221A70CFE7104BC0
:105330005B78A52BD3D10E4B9B78012BCFD10C4B97
:10534000DB78FE2BCBD10A48C4790721FFF7F8FEA2
:105350008442C4D1044B00221A70064B01221A70F9
:10536000C2E700BF40340020343400203034002035
:10537000383400202F34002008B5034B00221A7067
:10538000FFF7FAFE08BD00BF3434002008B5044B17
:105390001B7803B908BD024B00221A70FFF7F8FE14
:1053A0002F3400200369C268934204D881688A1AA6
:1053B0001344581E7047981A013870472DE9F84376
:1053C000044688461646C5688768A7EB05099145D7
:1053D00009D94068284403F012FFBFF35F8F3544BA
:1053E000E560BDE8F88340684A46284403F007FFBB
:1053F000ED1B35442A4608EB0901606803F0FFFE07
:10540000BFF35F8FE560ECE72DE9F8430646884679
:105410001746C5684FF000091CE0B2685B1B1A44D0
:10542000013AB3685C1B944228BF1446BC4228BFB3
:105430003C46706822464146284403F0E0FEA14401
:10544000A0443F1B2544B368AB4209D0BFF35F8F34
:10545000F5603FB133699D42DFD25B1B5A1EE0E726
:105460000025F3E74846BDE8F883000010B5154C69
:1054700078220021204603F043FE0223236163616A
:10548000114AA261114BE3614FF480632362002350
:10549000A3626362E362A2640D4AE26410222265A1
:1054A000A3656365E365BFF35F8F06E0C3F10F0299
:1054B0000849895C034AD15401330F2BF6D9BFF355
:1054C0005F8F10BD5438002058CC000854340020A1
:1054D000443400205CD80008F8B50F461646441C3A
:1054E00004EB4404164B03EBC40400EB400003EB55
:1054F000C003DD6A012D0ED0022D1AD0F5B9204669
:10550000FFF750FF864212D8324639462046FFF751
:1055100055FF35460BE02046FFF744FF35468642EF
:1055200028BF05462A4639462046FFF747FF28464A
:10553000F8BD2046FFF768FF0546F8E70025F6E7C7
:105540005438002070B504460D461646064B1B78AD
:10555000532B05D1324629462046FFF7BDFF70BDCB
:10556000FFF784FFF6E700BF5438002008B501308C
:1055700000EB4000024B03EBC000FFF713FF08BD38
:10558000543800204A4B5A6822F440325A605A6814
:1055900041680A435A600268536823F48073536079
:1055A00002685368016943EA012353600268536843
:1055B00023F0407353600268536881680B43536063
:1055C0000268936823F40063936002689368C1687B
:1055D0000B439360826A374B9A4257D002689368B4
:1055E00023F07063936002689368816A0B43936051
:1055F0000268936823F04053936002689368C16A1D
:105600000B4393600268936823F00203936002687F
:105610009368017E43EA4103936090F82030002BA9
:105620003FD00268536843F40063536002685368D4
:1056300023F46043536001684B68426A013A43EACD
:1056400042334B600268D36A23F47003D36201686B
:10565000CB6AC269013A43EA0253CB62026893689B
:1056600023F4007393600268936890F8301043EA63
:10567000412393600268936823F480639360026817
:105680009368416943EA8123936070470268936895
:1056900023F0706393600268936823F04053936033
:1056A000B0E70268536823F400635360CAE700BFA1
:1056B000002301400100000F38B310B50446036C0D
:1056C00043B1236C13F0100F0BD00120002384F89A
:1056D0003C3010BDFCF774FD0023636484F83C305B
:1056E000EFE7236C23F4885323F0020343F0020313
:1056F00023642046FFF746FF00206064236C23F0FC
:10570000030343F001032364E0E701207047000036
:1057100082B00023019390F83C30012B00F0898087
:10572000012380F83C3003689A6812F0010F13D10E
:105730009A6842F001029A60414B1B68414AA2FB01
:1057400003239B0C03EB4303019302E0019B013B0A
:105750000193019B002BF9D10268936813F0010FAC
:105760005CD0036C23F4E06323F0010343F4807303
:105770000364536813F4806F05D0036C23F4405323
:1057800043F480530364036C13F4805F1BD0436CB9
:1057900023F006034364002380F83C306FF02203BB
:1057A0001360294B5B6813F01F0F27D10368274A4A
:1057B000934211D002F58072934207D0244A93425B
:1057C00014D0002033E000234364E4E702F50072C4
:1057D000526812F01F0FF1D19A6812F0405F2AD17F
:1057E0009A6842F080429A60002020E002F58072C0
:1057F000526812F0100FEFD0002018E00368134A2F
:10580000934201D0002012E09A6812F0405F14D158
:105810009A6842F080429A60002008E0036C43F0EE
:1058200010030364436C43F001034364002002B09F
:1058300070470220FBE70020F9E70020F7E700BFF0
:10584000A800002083DE1B4300230140002001400C
:105850000022014090F83C30012B19D0012380F840
:105860003C300268936823F00103936003689B68EF
:1058700013F0010F07D1036C23F4885323F00103C5
:1058800043F001030364002380F83C30184670475E
:105890000220704710B582B013460022019290F8A2
:1058A0003C20012A00F0A7800446012280F83C2019
:1058B0000268906810F0010F13D1906840F0010069
:1058C00090604E4A10684E4AA2FB0020800C00EB0C
:1058D0004000019002E001980138019001980028F1
:1058E000F9D12268906810F4807F03D0906820F48A
:1058F000807090602268906810F0010F70D0206C6A
:1059000020F4E06020F0010040F4807020645268D0
:1059100012F4806F05D0226C22F4405242F480527F
:105920002264226C12F4805F3BD0626C22F006028B
:105930006264002284F83C20A26B3248D063A26BE0
:1059400031481064A26B3148D06422686FF02200A5
:1059500010602068426842F080624260206882687D
:1059600042F48072826020680A4600F14C01A06B0C
:1059700000F038FF264B5B6813F01F0F23D123681C
:10598000244A934216D002F5807293420CD0224AE8
:1059900093422ED102F58072526812F0100F28D176
:1059A00008E000226264C4E702F50072526812F057
:1059B0001F0FECD19A6812F0405F1AD19A6842F03A
:1059C00080429A6015E02368124A934211D19A6886
:1059D00012F0405F0DD19A6842F080429A6008E070
:1059E000236C43F010032364636C43F0010363648E
:1059F000002002B010BD0220FBE700BFA80000207D
:105A000083DE1B43475A0008255A0008315A000814
:105A10000023014000200140002201400368D86CAF
:105A20007047704708B5806BFFF7FBFF08BD7047F4
:105A300008B5806B40230364436C43F00403436464
:105A4000FFF7F5FF08BD08B50346806B026C12F046
:105A5000500F25D1036C43F40073036403689A6804
:105A600012F0405F19D1027EBAB9DA6A12F4700FEF
:105A700003D09A6812F4806F0FD15A6822F0200286
:105A80005A60036C23F480730364036C13F4805F27
:105A900003D1036C43F001030364FBF7D5FF08BD9A
:105AA000026C12F0100F04D1826BD26C1846904732
:105AB000F5E7FFF7BCFFF2E730B482B000220192B5
:105AC00090F83C20012A00F0B6800346012280F8BD
:105AD0003C200A68092A40D90468E06892B202EBC7
